{
  "contractName": "Lottery",
  "abi": [
    {
      "inputs": [
        {
          "internalType": "uint256",
          "name": "",
          "type": "uint256"
        }
      ],
      "name": "players",
      "outputs": [
        {
          "internalType": "address payable",
          "name": "",
          "type": "address"
        }
      ],
      "stateMutability": "view",
      "type": "function",
      "constant": true
    }
  ],
  "bytecode": "0x608060405234801561001057600080fd5b50610199806100206000396000f3fe608060405234801561001057600080fd5b506004361061002b5760003560e01c8063f71d96cb14610030575b600080fd5b61004a600480360381019061004591906100da565b610060565b6040516100579190610148565b60405180910390f35b6000818154811061007057600080fd5b906000526020600020016000915054906101000a900473ffffffffffffffffffffffffffffffffffffffff1681565b600080fd5b6000819050919050565b6100b7816100a4565b81146100c257600080fd5b50565b6000813590506100d4816100ae565b92915050565b6000602082840312156100f0576100ef61009f565b5b60006100fe848285016100c5565b91505092915050565b600073ffffffffffffffffffffffffffffffffffffffff82169050919050565b600061013282610107565b9050919050565b61014281610127565b82525050565b600060208201905061015d6000830184610139565b9291505056fea26469706673582212208b68b4197c0252083f3a27be3a001656e0d43ec42c4f03b9d692c829ee811fba64736f6c634300080d0033",
  "immutableReferences": {},
  "source": "// SPDX-License-Identifier: GPL-3.0\npragma solidity >=0.8.0 <0.9.0;\n\ncontract Lottery {\n    address payable[] public players;\n}\n",
  "sourcePath": "/Users/xolmer/code/contracts/lottery/contracts/Lottery.sol",
  "compiler": {
    "name": "solc",
    "version": "0.8.13+commit.abaa5c0e.Emscripten.clang"
  },
  "schemaVersion": "3.4.6",
  "updatedAt": "2022-05-15T14:00:54.833Z",
  "networkType": "ethereum",
  "devdoc": {
    "kind": "dev",
    "methods": {},
    "version": 1
  },
  "userdoc": {
    "kind": "user",
    "methods": {},
    "version": 1
  }
}