{
  "contractName": "A",
  "abi": [
    {
      "inputs": [
        {
          "internalType": "uint256",
          "name": "",
          "type": "uint256"
        }
      ],
      "name": "cities",
      "outputs": [
        {
          "internalType": "string",
          "name": "",
          "type": "string"
        }
      ],
      "stateMutability": "view",
      "type": "function"
    },
    {
      "inputs": [],
      "name": "f_memory",
      "outputs": [],
      "stateMutability": "nonpayable",
      "type": "function"
    },
    {
      "inputs": [],
      "name": "f_storage",
      "outputs": [],
      "stateMutability": "nonpayable",
      "type": "function"
    }
  ],
  "bytecode": "0x608060405260405180604001604052806040518060400160405280600681526020017f507261677565000000000000000000000000000000000000000000000000000081525081526020016040518060400160405280600981526020017f427563686172657374000000000000000000000000000000000000000000000081525081525060009060026100939291906100a6565b503480156100a057600080fd5b5061026d565b8280548282559060005260206000209081019282156100f5579160200282015b828111156100f45782518290805190602001906100e4929190610106565b50916020019190600101906100c6565b5b509050610102919061018c565b5090565b8280546101129061023c565b90600052602060002090601f016020900481019282610134576000855561017b565b82601f1061014d57805160ff191683800117855561017b565b8280016001018555821561017b579182015b8281111561017a57825182559160200191906001019061015f565b5b50905061018891906101b0565b5090565b5b808211156101ac57600081816101a391906101cd565b5060010161018d565b5090565b5b808211156101c95760008160009055506001016101b1565b5090565b5080546101d99061023c565b6000825580601f106101eb575061020a565b601f01602090049060005260206000209081019061020991906101b0565b5b50565b7f4e487b7100000000000000000000000000000000000000000000000000000000600052602260045260246000fd5b6000600282049050600182168061025457607f821691505b6020821081036102675761026661020d565b5b50919050565b61055b8061027c6000396000f3fe608060405234801561001057600080fd5b50600436106100415760003560e01c806358fd56bb146100465780636a51b918146100505780636b5a31d914610080575b600080fd5b61004e61008a565b005b61006a600480360381019061006591906103ae565b6101b7565b6040516100779190610474565b60405180910390f35b610088610263565b005b600080805480602002602001604051908101604052809291908181526020016000905b828210156101595783829060005260206000200180546100cc906104c5565b80601f01602080910402602001604051908101604052809291908181526020018280546100f8906104c5565b80156101455780601f1061011a57610100808354040283529160200191610145565b820191906000526020600020905b81548152906001019060200180831161012857829003601f168201915b5050505050815260200190600101906100ad565b5050505090506040518060400160405280600681526020017f4265726c696e0000000000000000000000000000000000000000000000000000815250816000815181106101a9576101a86104f6565b5b602002602001018190525050565b600081815481106101c757600080fd5b9060005260206000200160009150905080546101e2906104c5565b80601f016020809104026020016040519081016040528092919081815260200182805461020e906104c5565b801561025b5780601f106102305761010080835404028352916020019161025b565b820191906000526020600020905b81548152906001019060200180831161023e57829003601f168201915b505050505081565b60006040518060400160405280600581526020017f5041726973000000000000000000000000000000000000000000000000000000815250816000815481106102af576102ae6104f6565b5b9060005260206000200190805190602001906102cc9291906102d0565b5050565b8280546102dc906104c5565b90600052602060002090601f0160209004810192826102fe5760008555610345565b82601f1061031757805160ff1916838001178555610345565b82800160010185558215610345579182015b82811115610344578251825591602001919060010190610329565b5b5090506103529190610356565b5090565b5b8082111561036f576000816000905550600101610357565b5090565b600080fd5b6000819050919050565b61038b81610378565b811461039657600080fd5b50565b6000813590506103a881610382565b92915050565b6000602082840312156103c4576103c3610373565b5b60006103d284828501610399565b91505092915050565b600081519050919050565b600082825260208201905092915050565b60005b838110156104155780820151818401526020810190506103fa565b83811115610424576000848401525b50505050565b6000601f19601f8301169050919050565b6000610446826103db565b61045081856103e6565b93506104608185602086016103f7565b6104698161042a565b840191505092915050565b6000602082019050818103600083015261048e818461043b565b905092915050565b7f4e487b7100000000000000000000000000000000000000000000000000000000600052602260045260246000fd5b600060028204905060018216806104dd57607f821691505b6020821081036104f0576104ef610496565b5b50919050565b7f4e487b7100000000000000000000000000000000000000000000000000000000600052603260045260246000fdfea26469706673582212203946db1e0a32200b3b2f10964c2659668ef9a080b54be7d98b95c22c92fb7d0f64736f6c634300080d0033",
  "immutableReferences": {},
  "source": "// SPDX-License-Identifier: GPL-3.0\npragma solidity >=0.8.0 <0.9.0;\n\ncontract A {\n    string[] public cities = [\"Prague\", \"Bucharest\"];\n\n    function f_memory() public {\n        string[] memory s1 = cities;\n        s1[0] = \"Berlin\";\n    }\n\n    function f_storage() public {\n        string[] storage s1 = cities;\n        s1[0] = \"PAris\";\n    }\n}\n",
  "sourcePath": "/Users/xolmer/code/contracts/eattheblock/contracts/StorageVsMemory.sol",
  "compiler": {
    "name": "solc",
    "version": "0.8.13+commit.abaa5c0e.Emscripten.clang"
  },
  "schemaVersion": "3.4.6",
  "updatedAt": "2022-05-14T18:07:48.517Z",
  "devdoc": {
    "kind": "dev",
    "methods": {},
    "version": 1
  },
  "userdoc": {
    "kind": "user",
    "methods": {},
    "version": 1
  }
}