{
  "contractName": "Academy",
  "abi": [
    {
      "inputs": [
        {
          "internalType": "uint256",
          "name": "_age",
          "type": "uint256"
        },
        {
          "internalType": "string",
          "name": "_name",
          "type": "string"
        }
      ],
      "stateMutability": "nonpayable",
      "type": "constructor"
    },
    {
      "inputs": [],
      "name": "academyInstructor",
      "outputs": [
        {
          "internalType": "address",
          "name": "addr",
          "type": "address"
        },
        {
          "internalType": "string",
          "name": "name",
          "type": "string"
        },
        {
          "internalType": "uint256",
          "name": "age",
          "type": "uint256"
        }
      ],
      "stateMutability": "view",
      "type": "function"
    },
    {
      "inputs": [],
      "name": "academyState",
      "outputs": [
        {
          "internalType": "enum Academy.State",
          "name": "",
          "type": "uint8"
        }
      ],
      "stateMutability": "view",
      "type": "function"
    },
    {
      "inputs": [
        {
          "internalType": "uint256",
          "name": "_age",
          "type": "uint256"
        },
        {
          "internalType": "string",
          "name": "_name",
          "type": "string"
        },
        {
          "internalType": "address",
          "name": "_addr",
          "type": "address"
        }
      ],
      "name": "changeInstructor",
      "outputs": [],
      "stateMutability": "nonpayable",
      "type": "function"
    }
  ],
  "bytecode": "0x60806040526000600360006101000a81548160ff021916908360028111156200002d576200002c62000186565b5b02179055503480156200003f57600080fd5b5060405162000bd038038062000bd083398181016040528101906200006591906200038d565b8160006002018190555080600060010190805190602001906200008a929190620000d6565b50336000800160006101000a81548173ffffffffffffffffffffffffffffffffffffffff021916908373ffffffffffffffffffffffffffffffffffffffff160217905550505062000457565b828054620000e49062000422565b90600052602060002090601f01602090048101928262000108576000855562000154565b82601f106200012357805160ff191683800117855562000154565b8280016001018555821562000154579182015b828111156200015357825182559160200191906001019062000136565b5b50905062000163919062000167565b5090565b5b808211156200018257600081600090555060010162000168565b5090565b7f4e487b7100000000000000000000000000000000000000000000000000000000600052602160045260246000fd5b6000604051905090565b600080fd5b600080fd5b6000819050919050565b620001de81620001c9565b8114620001ea57600080fd5b50565b600081519050620001fe81620001d3565b92915050565b600080fd5b600080fd5b6000601f19601f8301169050919050565b7f4e487b7100000000000000000000000000000000000000000000000000000000600052604160045260246000fd5b62000259826200020e565b810181811067ffffffffffffffff821117156200027b576200027a6200021f565b5b80604052505050565b600062000290620001b5565b90506200029e82826200024e565b919050565b600067ffffffffffffffff821115620002c157620002c06200021f565b5b620002cc826200020e565b9050602081019050919050565b60005b83811015620002f9578082015181840152602081019050620002dc565b8381111562000309576000848401525b50505050565b6000620003266200032084620002a3565b62000284565b90508281526020810184848401111562000345576200034462000209565b5b62000352848285620002d9565b509392505050565b600082601f83011262000372576200037162000204565b5b8151620003848482602086016200030f565b91505092915050565b60008060408385031215620003a757620003a6620001bf565b5b6000620003b785828601620001ed565b925050602083015167ffffffffffffffff811115620003db57620003da620001c4565b5b620003e9858286016200035a565b9150509250929050565b7f4e487b7100000000000000000000000000000000000000000000000000000000600052602260045260246000fd5b600060028204905060018216806200043b57607f821691505b602082108103620004515762000450620003f3565b5b50919050565b61076980620004676000396000f3fe608060405234801561001057600080fd5b50600436106100415760003560e01c806323b8ca9f146100465780635424884114610064578063a46878fb14610084575b600080fd5b61004e6100a0565b60405161005b9190610377565b60405180910390f35b61006c6100b3565b60405161007b93929190610485565b60405180910390f35b61009e60048036038101906100999190610664565b610173565b005b600360009054906101000a900460ff1681565b60008060000160009054906101000a900473ffffffffffffffffffffffffffffffffffffffff16908060010180546100ea90610702565b80601f016020809104026020016040519081016040528092919081815260200182805461011690610702565b80156101635780601f1061013857610100808354040283529160200191610163565b820191906000526020600020905b81548152906001019060200180831161014657829003601f168201915b5050505050908060020154905083565b6000600281111561018757610186610300565b5b600360009054906101000a900460ff1660028111156101a9576101a8610300565b5b0361025857600060405180606001604052808373ffffffffffffffffffffffffffffffffffffffff168152602001848152602001858152509050806000808201518160000160006101000a81548173ffffffffffffffffffffffffffffffffffffffff021916908373ffffffffffffffffffffffffffffffffffffffff160217905550602082015181600101908051906020019061024892919061025d565b5060408201518160020155905050505b505050565b82805461026990610702565b90600052602060002090601f01602090048101928261028b57600085556102d2565b82601f106102a457805160ff19168380011785556102d2565b828001600101855582156102d2579182015b828111156102d15782518255916020019190600101906102b6565b5b5090506102df91906102e3565b5090565b5b808211156102fc5760008160009055506001016102e4565b5090565b7f4e487b7100000000000000000000000000000000000000000000000000000000600052602160045260246000fd5b600381106103405761033f610300565b5b50565b60008190506103518261032f565b919050565b600061036182610343565b9050919050565b61037181610356565b82525050565b600060208201905061038c6000830184610368565b92915050565b600073ffffffffffffffffffffffffffffffffffffffff82169050919050565b60006103bd82610392565b9050919050565b6103cd816103b2565b82525050565b600081519050919050565b600082825260208201905092915050565b60005b8381101561040d5780820151818401526020810190506103f2565b8381111561041c576000848401525b50505050565b6000601f19601f8301169050919050565b600061043e826103d3565b61044881856103de565b93506104588185602086016103ef565b61046181610422565b840191505092915050565b6000819050919050565b61047f8161046c565b82525050565b600060608201905061049a60008301866103c4565b81810360208301526104ac8185610433565b90506104bb6040830184610476565b949350505050565b6000604051905090565b600080fd5b600080fd5b6104e08161046c565b81146104eb57600080fd5b50565b6000813590506104fd816104d7565b92915050565b600080fd5b600080fd5b7f4e487b7100000000000000000000000000000000000000000000000000000000600052604160045260246000fd5b61054582610422565b810181811067ffffffffffffffff821117156105645761056361050d565b5b80604052505050565b60006105776104c3565b9050610583828261053c565b919050565b600067ffffffffffffffff8211156105a3576105a261050d565b5b6105ac82610422565b9050602081019050919050565b82818337600083830152505050565b60006105db6105d684610588565b61056d565b9050828152602081018484840111156105f7576105f6610508565b5b6106028482856105b9565b509392505050565b600082601f83011261061f5761061e610503565b5b813561062f8482602086016105c8565b91505092915050565b610641816103b2565b811461064c57600080fd5b50565b60008135905061065e81610638565b92915050565b60008060006060848603121561067d5761067c6104cd565b5b600061068b868287016104ee565b935050602084013567ffffffffffffffff8111156106ac576106ab6104d2565b5b6106b88682870161060a565b92505060406106c98682870161064f565b9150509250925092565b7f4e487b7100000000000000000000000000000000000000000000000000000000600052602260045260246000fd5b6000600282049050600182168061071a57607f821691505b60208210810361072d5761072c6106d3565b5b5091905056fea2646970667358221220b6800495e33d430016c8c20d5e9b258be6809e9775a9bc6b4e4137d9f7f9284e64736f6c634300080d0033",
  "immutableReferences": {},
  "source": "// SPDX-License-Identifier: GPL-3.0\npragma solidity >=0.8.0 <0.9.0;\n\nstruct Instructor {\n    address addr;\n    string name;\n    uint256 age;\n}\n\ncontract Academy {\n    Instructor public academyInstructor;\n\n    enum State {\n        Open,\n        Closed,\n        Unknown\n    }\n    State public academyState = State.Open;\n\n    constructor(uint256 _age, string memory _name) {\n        academyInstructor.age = _age;\n        academyInstructor.name = _name;\n        academyInstructor.addr = msg.sender;\n    }\n\n    /// @notice Change the instructor\n    /// @param _age The new age of the instructor\n    /// @param _name The new name of the instructor\n    function changeInstructor(\n        uint256 _age,\n        string memory _name,\n        address _addr\n    ) public {\n        if (academyState == State.Open) {\n            Instructor memory myInstructor = Instructor({\n                age: _age,\n                name: _name,\n                addr: _addr\n            });\n            academyInstructor = myInstructor;\n        }\n    }\n}\n\ncontract School {\n    Instructor public schoolInstructor;\n\n    constructor(uint256 _age, string memory _name) {\n        schoolInstructor.age = _age;\n        schoolInstructor.name = _name;\n        schoolInstructor.addr = msg.sender;\n    }\n\n    ///@notice Change the instructor\n    ///@param _age The new age of the instructor\n    ///@param _name The new name of the instructor\n    ///@param _addr The new address of the instructor\n    function changeInstructor(\n        uint256 _age,\n        string memory _name,\n        address _addr\n    ) public {\n        Instructor memory myInstructor = Instructor({\n            age: _age,\n            name: _name,\n            addr: _addr\n        });\n        schoolInstructor = myInstructor;\n    }\n}\n",
  "sourcePath": "/Users/xolmer/code/contracts/eattheblock/contracts/Struct.sol",
  "compiler": {
    "name": "solc",
    "version": "0.8.13+commit.abaa5c0e.Emscripten.clang"
  },
  "schemaVersion": "3.4.6",
  "updatedAt": "2022-05-14T18:07:48.521Z",
  "devdoc": {
    "kind": "dev",
    "methods": {
      "changeInstructor(uint256,string,address)": {
        "params": {
          "_age": "The new age of the instructor",
          "_name": "The new name of the instructor"
        }
      }
    },
    "version": 1
  },
  "userdoc": {
    "kind": "user",
    "methods": {
      "changeInstructor(uint256,string,address)": {
        "notice": "Change the instructor"
      }
    },
    "version": 1
  }
}