{
  "contractName": "Array",
  "abi": [
    {
      "inputs": [
        {
          "internalType": "uint256",
          "name": "",
          "type": "uint256"
        }
      ],
      "name": "arrayA",
      "outputs": [
        {
          "internalType": "uint256",
          "name": "",
          "type": "uint256"
        }
      ],
      "stateMutability": "view",
      "type": "function"
    },
    {
      "inputs": [
        {
          "internalType": "uint256",
          "name": "",
          "type": "uint256"
        }
      ],
      "name": "arrayBFixed",
      "outputs": [
        {
          "internalType": "uint256",
          "name": "",
          "type": "uint256"
        }
      ],
      "stateMutability": "view",
      "type": "function"
    },
    {
      "inputs": [],
      "name": "getLength",
      "outputs": [
        {
          "internalType": "uint256",
          "name": "",
          "type": "uint256"
        }
      ],
      "stateMutability": "view",
      "type": "function"
    },
    {
      "inputs": [],
      "name": "examples",
      "outputs": [],
      "stateMutability": "nonpayable",
      "type": "function"
    },
    {
      "inputs": [],
      "name": "returnArray",
      "outputs": [
        {
          "internalType": "uint256[]",
          "name": "",
          "type": "uint256[]"
        }
      ],
      "stateMutability": "view",
      "type": "function"
    }
  ],
  "bytecode": "0x60806040526040518060a00160405280600160ff168152602001600260ff168152602001600360ff168152602001602c60ff168152602001601660ff16815250600090600561004f92919061009a565b506040518060600160405280600160ff168152602001600260ff168152602001600360ff1681525060019060036100879291906100ec565b5034801561009457600080fd5b5061014e565b8280548282559060005260206000209081019282156100db579160200282015b828111156100da578251829060ff169055916020019190600101906100ba565b5b5090506100e89190610131565b5090565b8260038101928215610120579160200282015b8281111561011f578251829060ff169055916020019190600101906100ff565b5b50905061012d9190610131565b5090565b5b8082111561014a576000816000905550600101610132565b5090565b61050c8061015d6000396000f3fe608060405234801561001057600080fd5b50600436106100575760003560e01c8063335d00c21461005c5780633cac14c8146100665780634df500e614610084578063ad3149a4146100b4578063be1c766b146100e4575b600080fd5b610064610102565b005b61006e610234565b60405161007b919061039f565b60405180910390f35b61009e600480360381019061009991906103f2565b61028c565b6040516100ab919061042e565b60405180910390f35b6100ce60048036038101906100c991906103f2565b6102a7565b6040516100db919061042e565b60405180910390f35b6100ec6102cb565b6040516100f9919061042e565b60405180910390f35b60006017908060018154018082558091505060019003906000526020600020016000909190919091505560008060048154811061014257610141610449565b5b90600052602060002001549050610309600060028154811061016757610166610449565b5b9060005260206000200181905550600060018154811061018a57610189610449565b5b906000526020600020016000905560008054806101aa576101a9610478565b5b600190038181906000526020600020016000905590556000600567ffffffffffffffff8111156101dd576101dc6104a7565b5b60405190808252806020026020018201604052801561020b5781602001602082028036833780820191505090505b509050600a8160018151811061022457610223610449565b5b6020026020010181815250505050565b6060600080548060200260200160405190810160405280929190818152602001828054801561028257602002820191906000526020600020905b81548152602001906001019080831161026e575b5050505050905090565b6001816003811061029c57600080fd5b016000915090505481565b600081815481106102b757600080fd5b906000526020600020016000915090505481565b60008080549050905090565b600081519050919050565b600082825260208201905092915050565b6000819050602082019050919050565b6000819050919050565b61031681610303565b82525050565b6000610328838361030d565b60208301905092915050565b6000602082019050919050565b600061034c826102d7565b61035681856102e2565b9350610361836102f3565b8060005b83811015610392578151610379888261031c565b975061038483610334565b925050600181019050610365565b5085935050505092915050565b600060208201905081810360008301526103b98184610341565b905092915050565b600080fd5b6103cf81610303565b81146103da57600080fd5b50565b6000813590506103ec816103c6565b92915050565b600060208284031215610408576104076103c1565b5b6000610416848285016103dd565b91505092915050565b61042881610303565b82525050565b6000602082019050610443600083018461041f565b92915050565b7f4e487b7100000000000000000000000000000000000000000000000000000000600052603260045260246000fd5b7f4e487b7100000000000000000000000000000000000000000000000000000000600052603160045260246000fd5b7f4e487b7100000000000000000000000000000000000000000000000000000000600052604160045260246000fdfea2646970667358221220fae7789ff975debe26b0cbd927b3cb3f8a98043023cb9a24ff66aab51f16d93264736f6c634300080d0033",
  "immutableReferences": {},
  "source": "// SPDX-License-Identifier: GPL-3.0\npragma solidity >=0.8.0 <0.9.0;\n\ncontract Array {\n    uint256[] public arrayA = [1, 2, 3, 44, 22];\n    uint256[3] public arrayBFixed = [1, 2, 3];\n\n    function getLength() public view returns (uint256) {\n        return arrayA.length;\n    }\n\n    function examples() external {\n        arrayA.push(23);\n        uint256 x = arrayA[4];\n        arrayA[2] = 777;\n        delete arrayA[1];\n        arrayA.pop();\n        //Create Array in memory\n        uint256[] memory a = new uint256[](5);\n        a[1] = 10;\n    }\n\n    function returnArray() external view returns (uint256[] memory) {\n        return arrayA;\n    }\n}\n",
  "sourcePath": "/Users/xolmer/code/contracts/eattheblock/contracts/Arrays.sol",
  "compiler": {
    "name": "solc",
    "version": "0.8.13+commit.abaa5c0e.Emscripten.clang"
  },
  "schemaVersion": "3.4.6",
  "updatedAt": "2022-05-14T18:07:48.497Z",
  "devdoc": {
    "kind": "dev",
    "methods": {},
    "version": 1
  },
  "userdoc": {
    "kind": "user",
    "methods": {},
    "version": 1
  }
}