{
  "contractName": "BytesString",
  "abi": [
    {
      "inputs": [],
      "name": "b1",
      "outputs": [
        {
          "internalType": "bytes",
          "name": "",
          "type": "bytes"
        }
      ],
      "stateMutability": "view",
      "type": "function"
    },
    {
      "inputs": [],
      "name": "s1",
      "outputs": [
        {
          "internalType": "string",
          "name": "",
          "type": "string"
        }
      ],
      "stateMutability": "view",
      "type": "function"
    },
    {
      "inputs": [],
      "name": "addElement",
      "outputs": [],
      "stateMutability": "nonpayable",
      "type": "function"
    },
    {
      "inputs": [
        {
          "internalType": "uint256",
          "name": "i",
          "type": "uint256"
        }
      ],
      "name": "getElement",
      "outputs": [
        {
          "internalType": "bytes1",
          "name": "",
          "type": "bytes1"
        }
      ],
      "stateMutability": "view",
      "type": "function"
    },
    {
      "inputs": [],
      "name": "getLenght",
      "outputs": [
        {
          "internalType": "uint256",
          "name": "",
          "type": "uint256"
        }
      ],
      "stateMutability": "view",
      "type": "function"
    }
  ],
  "bytecode": "0x60806040526040518060400160405280600381526020017f61626300000000000000000000000000000000000000000000000000000000008152506000908051906020019061004f9291906100ae565b506040518060400160405280600381526020017f61626300000000000000000000000000000000000000000000000000000000008152506001908051906020019061009b929190610134565b503480156100a857600080fd5b50610237565b8280546100ba90610206565b90600052602060002090601f0160209004810192826100dc5760008555610123565b82601f106100f557805160ff1916838001178555610123565b82800160010185558215610123579182015b82811115610122578251825591602001919060010190610107565b5b50905061013091906101ba565b5090565b82805461014090610206565b90600052602060002090601f01602090048101928261016257600085556101a9565b82601f1061017b57805160ff19168380011785556101a9565b828001600101855582156101a9579182015b828111156101a857825182559160200191906001019061018d565b5b5090506101b691906101ba565b5090565b5b808211156101d35760008160009055506001016101bb565b5090565b7f4e487b7100000000000000000000000000000000000000000000000000000000600052602260045260246000fd5b6000600282049050600182168061021e57607f821691505b602082108103610231576102306101d7565b5b50919050565b610629806102466000396000f3fe608060405234801561001057600080fd5b50600436106100575760003560e01c80633a7d22bc1461005c5780633f2273b31461008c5780636cc014de14610096578063bed2a42e146100b4578063ee495002146100d2575b600080fd5b61007660048036038101906100719190610385565b6100f0565b60405161008391906103ed565b60405180910390f35b61009461015a565b005b61009e610219565b6040516100ab91906104a1565b60405180910390f35b6100bc6102a7565b6040516100c991906104d2565b60405180910390f35b6100da6102bc565b6040516100e79190610542565b60405180910390f35b6000808281546100ff90610593565b811061010e5761010d6105c4565b5b81546001161561012d5790600052602060002090602091828204019190065b9054901a7f0100000000000000000000000000000000000000000000000000000000000000029050919050565b60008080548061016990610593565b80601f81036101885783600052602060002060ff1984168155603f9350505b506002820183556001810192505050600190038154600116156101ba5790600052602060002090602091828204019190065b7f610000000000000000000000000000000000000000000000000000000000000090919091601f036101000a81548160ff021916907f010000000000000000000000000000000000000000000000000000000000000084040217905550565b6001805461022690610593565b80601f016020809104026020016040519081016040528092919081815260200182805461025290610593565b801561029f5780601f106102745761010080835404028352916020019161029f565b820191906000526020600020905b81548152906001019060200180831161028257829003601f168201915b505050505081565b60008080546102b590610593565b9050905090565b600080546102c990610593565b80601f01602080910402602001604051908101604052809291908181526020018280546102f590610593565b80156103425780601f1061031757610100808354040283529160200191610342565b820191906000526020600020905b81548152906001019060200180831161032557829003601f168201915b505050505081565b600080fd5b6000819050919050565b6103628161034f565b811461036d57600080fd5b50565b60008135905061037f81610359565b92915050565b60006020828403121561039b5761039a61034a565b5b60006103a984828501610370565b91505092915050565b60007fff0000000000000000000000000000000000000000000000000000000000000082169050919050565b6103e7816103b2565b82525050565b600060208201905061040260008301846103de565b92915050565b600081519050919050565b600082825260208201905092915050565b60005b83811015610442578082015181840152602081019050610427565b83811115610451576000848401525b50505050565b6000601f19601f8301169050919050565b600061047382610408565b61047d8185610413565b935061048d818560208601610424565b61049681610457565b840191505092915050565b600060208201905081810360008301526104bb8184610468565b905092915050565b6104cc8161034f565b82525050565b60006020820190506104e760008301846104c3565b92915050565b600081519050919050565b600082825260208201905092915050565b6000610514826104ed565b61051e81856104f8565b935061052e818560208601610424565b61053781610457565b840191505092915050565b6000602082019050818103600083015261055c8184610509565b905092915050565b7f4e487b7100000000000000000000000000000000000000000000000000000000600052602260045260246000fd5b600060028204905060018216806105ab57607f821691505b6020821081036105be576105bd610564565b5b50919050565b7f4e487b7100000000000000000000000000000000000000000000000000000000600052603260045260246000fdfea2646970667358221220582b94efe6814f5958f7e4d838b9215d742be3c38f5d8413e4b0ac141de54c8364736f6c634300080d0033",
  "immutableReferences": {},
  "source": "// SPDX-License-Identifier: GPL-3.0\npragma solidity >=0.8.0 <0.9.0;\n\ncontract BytesString {\n    bytes public b1 = \"abc\";\n    string public s1 = \"abc\";\n\n    function addElement() public {\n        b1.push(\"a\");\n        // s1.push(\"def\");\n    }\n\n    function getElement(uint256 i) public view returns (bytes1) {\n        return b1[i];\n    }\n\n    function getLenght() public view returns (uint256) {\n        return b1.length;\n    }\n}\n",
  "sourcePath": "/Users/xolmer/code/contracts/eattheblock/contracts/BytesString.sol",
  "compiler": {
    "name": "solc",
    "version": "0.8.13+commit.abaa5c0e.Emscripten.clang"
  },
  "schemaVersion": "3.4.6",
  "updatedAt": "2022-05-14T18:07:48.500Z",
  "devdoc": {
    "kind": "dev",
    "methods": {},
    "version": 1
  },
  "userdoc": {
    "kind": "user",
    "methods": {},
    "version": 1
  }
}