{
  "contractName": "DynamicArray",
  "abi": [
    {
      "inputs": [
        {
          "internalType": "uint256",
          "name": "",
          "type": "uint256"
        }
      ],
      "name": "numbers",
      "outputs": [
        {
          "internalType": "uint256",
          "name": "",
          "type": "uint256"
        }
      ],
      "stateMutability": "view",
      "type": "function"
    },
    {
      "inputs": [],
      "name": "getLength",
      "outputs": [
        {
          "internalType": "uint256",
          "name": "",
          "type": "uint256"
        }
      ],
      "stateMutability": "view",
      "type": "function"
    },
    {
      "inputs": [
        {
          "internalType": "uint256",
          "name": "element",
          "type": "uint256"
        }
      ],
      "name": "addElement",
      "outputs": [],
      "stateMutability": "nonpayable",
      "type": "function"
    },
    {
      "inputs": [
        {
          "internalType": "uint256",
          "name": "i",
          "type": "uint256"
        }
      ],
      "name": "getElement",
      "outputs": [
        {
          "internalType": "uint256",
          "name": "",
          "type": "uint256"
        }
      ],
      "stateMutability": "view",
      "type": "function"
    },
    {
      "inputs": [],
      "name": "popElement",
      "outputs": [],
      "stateMutability": "nonpayable",
      "type": "function"
    },
    {
      "inputs": [],
      "name": "f",
      "outputs": [],
      "stateMutability": "nonpayable",
      "type": "function"
    }
  ],
  "bytecode": "0x608060405234801561001057600080fd5b50610466806100206000396000f3fe608060405234801561001057600080fd5b50600436106100625760003560e01c806326121ff0146100675780633a7d22bc146100715780639a6fcbdd146100a1578063be1c766b146100ab578063d39fa233146100c9578063f5d9612d146100f9575b600080fd5b61006f610115565b005b61008b6004803603810190610086919061034c565b6101e3565b6040516100989190610388565b60405180910390f35b6100a9610221565b005b6100b361024b565b6040516100c09190610388565b60405180910390f35b6100e360048036038101906100de919061034c565b610257565b6040516100f09190610388565b60405180910390f35b610113600480360381019061010e919061034c565b61027b565b005b6000600367ffffffffffffffff811115610132576101316103a3565b5b6040519080825280602002602001820160405280156101605781602001602082028036833780820191505090505b509050600a81600081518110610179576101786103d2565b5b60200260200101818152505060148160018151811061019b5761019a6103d2565b5b602002602001018181525050601e816002815181106101bd576101bc6103d2565b5b60200260200101818152505080600090805190602001906101df9291906102a7565b5050565b600080805490508210156102175760008281548110610205576102046103d2565b5b9060005260206000200154905061021c565b600090505b919050565b600080548061023357610232610401565b5b60019003818190600052602060002001600090559055565b60008080549050905090565b6000818154811061026757600080fd5b906000526020600020016000915090505481565b600081908060018154018082558091505060019003906000526020600020016000909190919091505550565b8280548282559060005260206000209081019282156102e3579160200282015b828111156102e25782518255916020019190600101906102c7565b5b5090506102f091906102f4565b5090565b5b8082111561030d5760008160009055506001016102f5565b5090565b600080fd5b6000819050919050565b61032981610316565b811461033457600080fd5b50565b60008135905061034681610320565b92915050565b60006020828403121561036257610361610311565b5b600061037084828501610337565b91505092915050565b61038281610316565b82525050565b600060208201905061039d6000830184610379565b92915050565b7f4e487b7100000000000000000000000000000000000000000000000000000000600052604160045260246000fd5b7f4e487b7100000000000000000000000000000000000000000000000000000000600052603260045260246000fd5b7f4e487b7100000000000000000000000000000000000000000000000000000000600052603160045260246000fdfea2646970667358221220159ca22d9377204fa8f29532744ca1a9fece56061e7604f591ee252869decb6264736f6c634300080d0033",
  "immutableReferences": {},
  "source": "// SPDX-License-Identifier: GPL-3.0\npragma solidity >=0.8.0 <0.9.0;\n\ncontract DynamicArray {\n    uint256[] public numbers;\n\n    ///@dev getter for the length of the array\n    function getLength() public view returns (uint256) {\n        return numbers.length;\n    }\n\n    ///@dev Function to add a number to the array\n    function addElement(uint256 element) public {\n        numbers.push(element);\n    }\n\n    ///@dev Function to get the element at the given index\n    function getElement(uint256 i) public view returns (uint256) {\n        if (i < numbers.length) {\n            return numbers[i];\n        }\n        return 0;\n    }\n\n    ///@dev Function to remove an element from the array\n    function popElement() public {\n        numbers.pop();\n    }\n\n    function f() public {\n        uint256[] memory y = new uint256[](3);\n        y[0] = 10;\n        y[1] = 20;\n        y[2] = 30;\n        numbers = y;\n    }\n}\n",
  "sourcePath": "/Users/xolmer/code/contracts/eattheblock/contracts/DynamicArray.sol",
  "compiler": {
    "name": "solc",
    "version": "0.8.13+commit.abaa5c0e.Emscripten.clang"
  },
  "schemaVersion": "3.4.6",
  "updatedAt": "2022-05-14T18:07:48.506Z",
  "devdoc": {
    "kind": "dev",
    "methods": {
      "addElement(uint256)": {
        "details": "Function to add a number to the array"
      },
      "getElement(uint256)": {
        "details": "Function to get the element at the given index"
      },
      "getLength()": {
        "details": "getter for the length of the array"
      },
      "popElement()": {
        "details": "Function to remove an element from the array"
      }
    },
    "version": 1
  },
  "userdoc": {
    "kind": "user",
    "methods": {},
    "version": 1
  }
}