{
  "contractName": "GlovalVariables",
  "abi": [
    {
      "inputs": [],
      "name": "block_difficulty",
      "outputs": [
        {
          "internalType": "uint256",
          "name": "",
          "type": "uint256"
        }
      ],
      "stateMutability": "view",
      "type": "function"
    },
    {
      "inputs": [],
      "name": "block_gas_limit",
      "outputs": [
        {
          "internalType": "uint256",
          "name": "",
          "type": "uint256"
        }
      ],
      "stateMutability": "view",
      "type": "function"
    },
    {
      "inputs": [],
      "name": "block_number",
      "outputs": [
        {
          "internalType": "uint256",
          "name": "",
          "type": "uint256"
        }
      ],
      "stateMutability": "view",
      "type": "function"
    },
    {
      "inputs": [],
      "name": "this_moment",
      "outputs": [
        {
          "internalType": "uint256",
          "name": "",
          "type": "uint256"
        }
      ],
      "stateMutability": "view",
      "type": "function"
    }
  ],
  "bytecode": "0x60806040524260005543600155446002554560035534801561002057600080fd5b50610131806100306000396000f3fe6080604052348015600f57600080fd5b506004361060465760003560e01c806325a58b5614604b578063a0200b58146065578063e1ac752a14607f578063ec606726146099575b600080fd5b605160b3565b604051605c919060e2565b60405180910390f35b606b60b9565b6040516076919060e2565b60405180910390f35b608560bf565b6040516090919060e2565b60405180910390f35b609f60c5565b60405160aa919060e2565b60405180910390f35b60015481565b60005481565b60025481565b60035481565b6000819050919050565b60dc8160cb565b82525050565b600060208201905060f5600083018460d5565b9291505056fea2646970667358221220fb05dd5442b65fe5a3f9d59512668bc0c1d80e875a992265707a81ab0fcbc07364736f6c634300080d0033",
  "immutableReferences": {},
  "source": "// SPDX-License-Identifier: GPL-3.0\npragma solidity >=0.8.0 <0.9.0;\n\ncontract GlovalVariables {\n    uint256 public this_moment = block.timestamp;\n    uint256 public block_number = block.number;\n    uint256 public block_difficulty = block.difficulty;\n    uint256 public block_gas_limit = block.gaslimit;\n}\n",
  "sourcePath": "/Users/xolmer/code/contracts/eattheblock/contracts/GlobalVars.sol",
  "compiler": {
    "name": "solc",
    "version": "0.8.13+commit.abaa5c0e.Emscripten.clang"
  },
  "schemaVersion": "3.4.6",
  "updatedAt": "2022-05-14T18:07:48.510Z",
  "devdoc": {
    "kind": "dev",
    "methods": {},
    "version": 1
  },
  "userdoc": {
    "kind": "user",
    "methods": {},
    "version": 1
  }
}