{
  "contractName": "Property",
  "abi": [
    {
      "inputs": [
        {
          "internalType": "int256",
          "name": "_price",
          "type": "int256"
        },
        {
          "internalType": "string",
          "name": "_location",
          "type": "string"
        }
      ],
      "stateMutability": "nonpayable",
      "type": "constructor"
    },
    {
      "inputs": [],
      "name": "location",
      "outputs": [
        {
          "internalType": "string",
          "name": "",
          "type": "string"
        }
      ],
      "stateMutability": "view",
      "type": "function"
    },
    {
      "inputs": [],
      "name": "owner",
      "outputs": [
        {
          "internalType": "address",
          "name": "",
          "type": "address"
        }
      ],
      "stateMutability": "view",
      "type": "function"
    },
    {
      "inputs": [],
      "name": "price",
      "outputs": [
        {
          "internalType": "int256",
          "name": "",
          "type": "int256"
        }
      ],
      "stateMutability": "view",
      "type": "function"
    },
    {
      "inputs": [
        {
          "internalType": "int256",
          "name": "_price",
          "type": "int256"
        }
      ],
      "name": "setPrice",
      "outputs": [],
      "stateMutability": "nonpayable",
      "type": "function"
    },
    {
      "inputs": [
        {
          "internalType": "string",
          "name": "_location",
          "type": "string"
        }
      ],
      "name": "setLocation",
      "outputs": [],
      "stateMutability": "nonpayable",
      "type": "function"
    }
  ],
  "bytecode": "0x60c0604052606460a0908152503480156200001957600080fd5b5060405162000a4938038062000a4983398181016040528101906200003f919062000323565b3373ffffffffffffffffffffffffffffffffffffffff1660808173ffffffffffffffffffffffffffffffffffffffff1681525050816000819055508060019080519060200190620000929291906200009b565b505050620003ed565b828054620000a990620003b8565b90600052602060002090601f016020900481019282620000cd576000855562000119565b82601f10620000e857805160ff191683800117855562000119565b8280016001018555821562000119579182015b8281111562000118578251825591602001919060010190620000fb565b5b5090506200012891906200012c565b5090565b5b80821115620001475760008160009055506001016200012d565b5090565b6000604051905090565b600080fd5b600080fd5b6000819050919050565b62000174816200015f565b81146200018057600080fd5b50565b600081519050620001948162000169565b92915050565b600080fd5b600080fd5b6000601f19601f8301169050919050565b7f4e487b7100000000000000000000000000000000000000000000000000000000600052604160045260246000fd5b620001ef82620001a4565b810181811067ffffffffffffffff82111715620002115762000210620001b5565b5b80604052505050565b6000620002266200014b565b9050620002348282620001e4565b919050565b600067ffffffffffffffff821115620002575762000256620001b5565b5b6200026282620001a4565b9050602081019050919050565b60005b838110156200028f57808201518184015260208101905062000272565b838111156200029f576000848401525b50505050565b6000620002bc620002b68462000239565b6200021a565b905082815260208101848484011115620002db57620002da6200019f565b5b620002e88482856200026f565b509392505050565b600082601f8301126200030857620003076200019a565b5b81516200031a848260208601620002a5565b91505092915050565b600080604083850312156200033d576200033c62000155565b5b60006200034d8582860162000183565b925050602083015167ffffffffffffffff8111156200037157620003706200015a565b5b6200037f85828601620002f0565b9150509250929050565b7f4e487b7100000000000000000000000000000000000000000000000000000000600052602260045260246000fd5b60006002820490506001821680620003d157607f821691505b602082108103620003e757620003e662000389565b5b50919050565b60805160a0516106396200041060003960005050600061019801526106396000f3fe608060405234801561001057600080fd5b50600436106100575760003560e01c8063516f279e1461005c578063827bfbdf1461007a5780638da5cb5b14610096578063a035b1fe146100b4578063f7a30806146100d2575b600080fd5b6100646100ee565b6040516100719190610306565b60405180910390f35b610094600480360381019061008f9190610471565b61017c565b005b61009e610196565b6040516100ab91906104fb565b60405180910390f35b6100bc6101ba565b6040516100c9919061052f565b60405180910390f35b6100ec60048036038101906100e79190610576565b6101c0565b005b600180546100fb906105d2565b80601f0160208091040260200160405190810160405280929190818152602001828054610127906105d2565b80156101745780601f1061014957610100808354040283529160200191610174565b820191906000526020600020905b81548152906001019060200180831161015757829003601f168201915b505050505081565b80600190805190602001906101929291906101ca565b5050565b7f000000000000000000000000000000000000000000000000000000000000000081565b60005481565b8060008190555050565b8280546101d6906105d2565b90600052602060002090601f0160209004810192826101f8576000855561023f565b82601f1061021157805160ff191683800117855561023f565b8280016001018555821561023f579182015b8281111561023e578251825591602001919060010190610223565b5b50905061024c9190610250565b5090565b5b80821115610269576000816000905550600101610251565b5090565b600081519050919050565b600082825260208201905092915050565b60005b838110156102a757808201518184015260208101905061028c565b838111156102b6576000848401525b50505050565b6000601f19601f8301169050919050565b60006102d88261026d565b6102e28185610278565b93506102f2818560208601610289565b6102fb816102bc565b840191505092915050565b6000602082019050818103600083015261032081846102cd565b905092915050565b6000604051905090565b600080fd5b600080fd5b600080fd5b600080fd5b7f4e487b7100000000000000000000000000000000000000000000000000000000600052604160045260246000fd5b61037e826102bc565b810181811067ffffffffffffffff8211171561039d5761039c610346565b5b80604052505050565b60006103b0610328565b90506103bc8282610375565b919050565b600067ffffffffffffffff8211156103dc576103db610346565b5b6103e5826102bc565b9050602081019050919050565b82818337600083830152505050565b600061041461040f846103c1565b6103a6565b9050828152602081018484840111156104305761042f610341565b5b61043b8482856103f2565b509392505050565b600082601f8301126104585761045761033c565b5b8135610468848260208601610401565b91505092915050565b60006020828403121561048757610486610332565b5b600082013567ffffffffffffffff8111156104a5576104a4610337565b5b6104b184828501610443565b91505092915050565b600073ffffffffffffffffffffffffffffffffffffffff82169050919050565b60006104e5826104ba565b9050919050565b6104f5816104da565b82525050565b600060208201905061051060008301846104ec565b92915050565b6000819050919050565b61052981610516565b82525050565b60006020820190506105446000830184610520565b92915050565b61055381610516565b811461055e57600080fd5b50565b6000813590506105708161054a565b92915050565b60006020828403121561058c5761058b610332565b5b600061059a84828501610561565b91505092915050565b7f4e487b7100000000000000000000000000000000000000000000000000000000600052602260045260246000fd5b600060028204905060018216806105ea57607f821691505b6020821081036105fd576105fc6105a3565b5b5091905056fea26469706673582212202c93ac7962c4a9728843bfd35c461a0ab800d860e319a022161ae3bd98cfc7ec64736f6c634300080d0033",
  "immutableReferences": {
    "404": [
      {
        "length": 32,
        "start": 408
      }
    ]
  },
  "source": "// SPDX-License-Identifier: GPL-3.0\npragma solidity >=0.5.0 <0.9.0;\n\ncontract Property {\n    int256 public price;\n    string public location;\n    address public immutable owner;\n    int256 immutable area = 100;\n\n    constructor(int256 _price, string memory _location) {\n        owner = msg.sender;\n        price = _price;\n        location = _location;\n    }\n\n    function setPrice(int256 _price) public {\n        price = _price;\n    }\n\n    function setLocation(string memory _location) public {\n        location = _location;\n    }\n}\n",
  "sourcePath": "/Users/xolmer/code/contracts/eattheblock/contracts/Property.sol",
  "compiler": {
    "name": "solc",
    "version": "0.8.13+commit.abaa5c0e.Emscripten.clang"
  },
  "schemaVersion": "3.4.6",
  "updatedAt": "2022-05-14T18:07:48.514Z",
  "devdoc": {
    "kind": "dev",
    "methods": {},
    "version": 1
  },
  "userdoc": {
    "kind": "user",
    "methods": {},
    "version": 1
  }
}