{
  "contractName": "School",
  "abi": [
    {
      "inputs": [
        {
          "internalType": "uint256",
          "name": "_age",
          "type": "uint256"
        },
        {
          "internalType": "string",
          "name": "_name",
          "type": "string"
        }
      ],
      "stateMutability": "nonpayable",
      "type": "constructor"
    },
    {
      "inputs": [],
      "name": "schoolInstructor",
      "outputs": [
        {
          "internalType": "address",
          "name": "addr",
          "type": "address"
        },
        {
          "internalType": "string",
          "name": "name",
          "type": "string"
        },
        {
          "internalType": "uint256",
          "name": "age",
          "type": "uint256"
        }
      ],
      "stateMutability": "view",
      "type": "function"
    },
    {
      "inputs": [
        {
          "internalType": "uint256",
          "name": "_age",
          "type": "uint256"
        },
        {
          "internalType": "string",
          "name": "_name",
          "type": "string"
        },
        {
          "internalType": "address",
          "name": "_addr",
          "type": "address"
        }
      ],
      "name": "changeInstructor",
      "outputs": [],
      "stateMutability": "nonpayable",
      "type": "function"
    }
  ],
  "bytecode": "0x60806040523480156200001157600080fd5b5060405162000a6938038062000a69833981810160405281019062000037919062000330565b8160006002018190555080600060010190805190602001906200005c929190620000a8565b50336000800160006101000a81548173ffffffffffffffffffffffffffffffffffffffff021916908373ffffffffffffffffffffffffffffffffffffffff1602179055505050620003fa565b828054620000b690620003c5565b90600052602060002090601f016020900481019282620000da576000855562000126565b82601f10620000f557805160ff191683800117855562000126565b8280016001018555821562000126579182015b828111156200012557825182559160200191906001019062000108565b5b50905062000135919062000139565b5090565b5b80821115620001545760008160009055506001016200013a565b5090565b6000604051905090565b600080fd5b600080fd5b6000819050919050565b62000181816200016c565b81146200018d57600080fd5b50565b600081519050620001a18162000176565b92915050565b600080fd5b600080fd5b6000601f19601f8301169050919050565b7f4e487b7100000000000000000000000000000000000000000000000000000000600052604160045260246000fd5b620001fc82620001b1565b810181811067ffffffffffffffff821117156200021e576200021d620001c2565b5b80604052505050565b60006200023362000158565b9050620002418282620001f1565b919050565b600067ffffffffffffffff821115620002645762000263620001c2565b5b6200026f82620001b1565b9050602081019050919050565b60005b838110156200029c5780820151818401526020810190506200027f565b83811115620002ac576000848401525b50505050565b6000620002c9620002c38462000246565b62000227565b905082815260208101848484011115620002e857620002e7620001ac565b5b620002f58482856200027c565b509392505050565b600082601f830112620003155762000314620001a7565b5b815162000327848260208601620002b2565b91505092915050565b600080604083850312156200034a576200034962000162565b5b60006200035a8582860162000190565b925050602083015167ffffffffffffffff8111156200037e576200037d62000167565b5b6200038c85828601620002fd565b9150509250929050565b7f4e487b7100000000000000000000000000000000000000000000000000000000600052602260045260246000fd5b60006002820490506001821680620003de57607f821691505b602082108103620003f457620003f362000396565b5b50919050565b61065f806200040a6000396000f3fe608060405234801561001057600080fd5b50600436106100365760003560e01c806363dad1e61461003b578063a46878fb1461005b575b600080fd5b610043610077565b6040516100529392919061037b565b60405180910390f35b6100756004803603810190610070919061055a565b610137565b005b60008060000160009054906101000a900473ffffffffffffffffffffffffffffffffffffffff16908060010180546100ae906105f8565b80601f01602080910402602001604051908101604052809291908181526020018280546100da906105f8565b80156101275780601f106100fc57610100808354040283529160200191610127565b820191906000526020600020905b81548152906001019060200180831161010a57829003601f168201915b5050505050908060020154905083565b600060405180606001604052808373ffffffffffffffffffffffffffffffffffffffff168152602001848152602001858152509050806000808201518160000160006101000a81548173ffffffffffffffffffffffffffffffffffffffff021916908373ffffffffffffffffffffffffffffffffffffffff16021790555060208201518160010190805190602001906101d19291906101e5565b506040820151816002015590505050505050565b8280546101f1906105f8565b90600052602060002090601f016020900481019282610213576000855561025a565b82601f1061022c57805160ff191683800117855561025a565b8280016001018555821561025a579182015b8281111561025957825182559160200191906001019061023e565b5b509050610267919061026b565b5090565b5b8082111561028457600081600090555060010161026c565b5090565b600073ffffffffffffffffffffffffffffffffffffffff82169050919050565b60006102b382610288565b9050919050565b6102c3816102a8565b82525050565b600081519050919050565b600082825260208201905092915050565b60005b838110156103035780820151818401526020810190506102e8565b83811115610312576000848401525b50505050565b6000601f19601f8301169050919050565b6000610334826102c9565b61033e81856102d4565b935061034e8185602086016102e5565b61035781610318565b840191505092915050565b6000819050919050565b61037581610362565b82525050565b600060608201905061039060008301866102ba565b81810360208301526103a28185610329565b90506103b1604083018461036c565b949350505050565b6000604051905090565b600080fd5b600080fd5b6103d681610362565b81146103e157600080fd5b50565b6000813590506103f3816103cd565b92915050565b600080fd5b600080fd5b7f4e487b7100000000000000000000000000000000000000000000000000000000600052604160045260246000fd5b61043b82610318565b810181811067ffffffffffffffff8211171561045a57610459610403565b5b80604052505050565b600061046d6103b9565b90506104798282610432565b919050565b600067ffffffffffffffff82111561049957610498610403565b5b6104a282610318565b9050602081019050919050565b82818337600083830152505050565b60006104d16104cc8461047e565b610463565b9050828152602081018484840111156104ed576104ec6103fe565b5b6104f88482856104af565b509392505050565b600082601f830112610515576105146103f9565b5b81356105258482602086016104be565b91505092915050565b610537816102a8565b811461054257600080fd5b50565b6000813590506105548161052e565b92915050565b600080600060608486031215610573576105726103c3565b5b6000610581868287016103e4565b935050602084013567ffffffffffffffff8111156105a2576105a16103c8565b5b6105ae86828701610500565b92505060406105bf86828701610545565b9150509250925092565b7f4e487b7100000000000000000000000000000000000000000000000000000000600052602260045260246000fd5b6000600282049050600182168061061057607f821691505b602082108103610623576106226105c9565b5b5091905056fea2646970667358221220c98b64868b54585cdccfefa66fa4c8d69d07e0ce6495a9e4b38eaf53cf8e90e664736f6c634300080d0033",
  "immutableReferences": {},
  "source": "// SPDX-License-Identifier: GPL-3.0\npragma solidity >=0.8.0 <0.9.0;\n\nstruct Instructor {\n    address addr;\n    string name;\n    uint256 age;\n}\n\ncontract Academy {\n    Instructor public academyInstructor;\n\n    enum State {\n        Open,\n        Closed,\n        Unknown\n    }\n    State public academyState = State.Open;\n\n    constructor(uint256 _age, string memory _name) {\n        academyInstructor.age = _age;\n        academyInstructor.name = _name;\n        academyInstructor.addr = msg.sender;\n    }\n\n    /// @notice Change the instructor\n    /// @param _age The new age of the instructor\n    /// @param _name The new name of the instructor\n    function changeInstructor(\n        uint256 _age,\n        string memory _name,\n        address _addr\n    ) public {\n        if (academyState == State.Open) {\n            Instructor memory myInstructor = Instructor({\n                age: _age,\n                name: _name,\n                addr: _addr\n            });\n            academyInstructor = myInstructor;\n        }\n    }\n}\n\ncontract School {\n    Instructor public schoolInstructor;\n\n    constructor(uint256 _age, string memory _name) {\n        schoolInstructor.age = _age;\n        schoolInstructor.name = _name;\n        schoolInstructor.addr = msg.sender;\n    }\n\n    ///@notice Change the instructor\n    ///@param _age The new age of the instructor\n    ///@param _name The new name of the instructor\n    ///@param _addr The new address of the instructor\n    function changeInstructor(\n        uint256 _age,\n        string memory _name,\n        address _addr\n    ) public {\n        Instructor memory myInstructor = Instructor({\n            age: _age,\n            name: _name,\n            addr: _addr\n        });\n        schoolInstructor = myInstructor;\n    }\n}\n",
  "sourcePath": "/Users/xolmer/code/contracts/eattheblock/contracts/Struct.sol",
  "compiler": {
    "name": "solc",
    "version": "0.8.13+commit.abaa5c0e.Emscripten.clang"
  },
  "schemaVersion": "3.4.6",
  "updatedAt": "2022-05-14T18:07:48.526Z",
  "devdoc": {
    "kind": "dev",
    "methods": {
      "changeInstructor(uint256,string,address)": {
        "params": {
          "_addr": "The new address of the instructor",
          "_age": "The new age of the instructor",
          "_name": "The new name of the instructor"
        }
      }
    },
    "version": 1
  },
  "userdoc": {
    "kind": "user",
    "methods": {
      "changeInstructor(uint256,string,address)": {
        "notice": "Change the instructor"
      }
    },
    "version": 1
  }
}